:020000040800F2
:1000000050070020D1010008C3080008250300089C
:10001000BF080008C1020008290A0008000000000B
:10002000000000000000000000000000C7080008F9
:10003000C502000800000000C5080008B10900085A
:10004000EB010008EB010008EB010008EB010008E0
:10005000EB010008EB010008EB010008EB010008D0
:10006000EB010008EB010008EB010008EB010008C0
:10007000EB010008EB010008EB010008EB010008B0
:10008000EB010008EB010008EB010008EB010008A0
:10009000EB010008EB010008EB010008EB01000890
:1000A000EB010008EB010008EB010008EB01000880
:1000B000EB010008150A00081F0A0008EB01000800
:1000C000EB010008EB010008EB010008EB01000860
:1000D000EB010008EB010008EB010008EB01000850
:1000E000C9020008EB010008EB010008EB01000861
:1000F000EB010008EB010008EB010008EB01000830
:10010000EB010008EB010008EB010008EB0100081F
:10011000EB010008EB010008EB010008EB0100080F
:10012000EB010008EB010008EB010008EB010008FF
:1001300000F002F800F03CF80AA090E8000C8244BD
:100140008344AAF10107DA4501D100F031F8AFF29A
:10015000090EBAE80F0013F0010F18BFFB1A43F0A5
:10016000010318473011000050110000103A24BF5D
:1001700078C878C1FAD8520724BF30C830C144BF0C
:1001800004680C607047000000230024002500264E
:10019000103A28BF78C1FBD8520728BF30C148BFEA
:1001A0000B6070471FB500F048F81FBD10B510BDBB
:1001B00000F04FF81146FFF7F5FF00F0A7FC00F044
:1001C0006DF803B4FFF7F2FF03BC00F073F8000012
:1001D0000948804709480047FEE7FEE7FEE7FEE7DB
:1001E000FEE7FEE7FEE7FEE7FEE7FEE70448054917
:1001F000054A064B70470000B509000831010008A8
:100200005001002050070020500300205003002020
:100210000B4910B5A1F17C020A4CC2E93712372113
:1002200006E000EB104342F82130074B00FB03408F
:100230000B1EA1F10101F4DC10BD0120E8E7000074
:1002400084000020E119D666CD0D0100704770478B
:100250007047754600F028F8AE46050069465346DB
:1002600020F00700854618B020B5FFF7BFFFBDE8B6
:1002700020404FF000064FF000074FF000084FF00D
:10028000000B21F00701AC46ACE8C009ACE8C0099E
:10029000ACE8C009ACE8C0098D4670470446AFF32E
:1002A00000802046FFF78DFF00487047EC000020DB
:1002B0007047000001491820ABBEFEE7260002008F
:1002C00000BFFEE77047000010B54FF40060114911
:1002D000086011488068C0F3802410480068012835
:1002E0000DDB0E480068082809DC0C480178491E1F
:1002F00004FA01F00A4909780843094908700748D7
:100300000068401C054908600A20002100F0B0FA8E
:1003100010BD000014040140001001400000002046
:100320000400002000BFFEE71248806940F044004E
:10033000104988611048006820F00F000E490860DD
:100340000846006840F00800086001200A4914319E
:1003500008600A4800680A490840084908600846D9
:10036000006808490843054908601C20034910310A
:10037000086070470010024000080140001801406A
:10038000FF00F0FF008808002DE9F04106460F4607
:1003900014461D46DDF818802B4622463946304665
:1003A00000F088FB002008E0002103E0054AA2F8E5
:1003B0000080491CA942F9DB401CA042F4DBBDE8E7
:1003C000F08100000008006C3D48406940F48070F6
:1003D0003B4948610846806940F4B47088613948F7
:1003E000006820F00F00374908600846006840F0B8
:1003F0000300086034480068344908403249086006
:1004000008460068324908432F490860081F006801
:1004100000F0FF20091F08600846006840F0BB108C
:1004200008602C48006800202A49086008460068D7
:1004300040F0BB300860081F006820F07040091FC2
:1004400008600846006840F0304008602248406874
:1004500020F47020204948600846406840F430206D
:1004600048600846006820F00F00086008460068F1
:1004700040F00B00086045F211004FF02041886108
:1004800040F60170C8614FF44070144908600120C3
:100490004FF0D8410880112008803A20088055206C
:1004A0000F49088029204FF0D84108803620088065
:1004B000CA200B49088001200249103108607047AA
:1004C00000100240000C01400414014000F0FF0045
:1004D000BB0B00BB04180140002001401C0100A020
:1004E0000008006C1248806940F04800104988619B
:1004F0001048006820F470000E4908600846006843
:1005000040F44010086020200A49103108600A4871
:10051000006820F47000084908600846006840F44C
:100520004010086020200449103108607047000026
:1005300000100240000C01400018014010B50D48A9
:1005400000680B2814DB4FF0FF340B480078F028CC
:1005500001D00A480478094800780749087000204B
:100560000449086005490870204600F05FFA10BD94
:100570000020FCE70000002005000020040000200F
:100580002DE9F041044603204FF0E02108612046A8
:1005900000F089FB05460022054B00F09BFB074657
:1005A00000F054FB401E4FF0E0214861BDE8F081AF
:1005B0000094C140124AD26942F00202104BDA6143
:1005C000104A1080121F11800E4A203A128842F001
:1005D00001020C4B203B1A800A4A2C3A128842F046
:1005E0000102084B2C3B1A80F023074A1370074A7C
:1005F000126842F000524FF0E023C3F80021704728
:10060000001002402C0400401DE400E000E100E086
:10061000124AD26942F00402104BDA61104A10808B
:10062000121F11800E4A203A128842F001020C4B30
:10063000203B1A800A4A2C3A128842F00102084BE9
:100640002C3B1A80F023074A1370074A126842F0C5
:1006500080424FF0E023C3F80021704700100240B1
:100660002C0800401EE400E000E100E0032806D171
:100670000649098821F00101044A118005E0044976
:10068000098821F00101024A1180704710040040DE
:10069000100800402DE9F0473E48806944F204010B
:1006A00008433C4988610846C06940F40030C8618D
:1006B0003948006820F47F603749086008460068C0
:1006C00040F40B600860081F006820F47F40091F99
:1006D00008600846006840F40B4008602D48C06878
:1006E00040F480402B49C8600846C06820F4804030
:1006F000C8600846006940F4003008610846006997
:1007000020F400300861254D284600F043FC0446E3
:10071000204600F05FFC8146294600F03BFD804604
:100720004FF0834100F06AFC074600F033FC0646B8
:10073000240134441A490C801A4D284600F02AFC42
:100740000446204600F046FC8146294600F022FD82
:1007500080464FF0834100F051FC074600F01AFC40
:1007600006462401344410490C800D48001D0088C1
:1007700042F2080108430A49091D08800A48001D81
:10078000008842F2080108430749091D0880BDE8B6
:10079000F087000000100240040801400060EA43B6
:1007A0000838014000606A43084400400A488069F4
:1007B00040F00800084988610848006820F00F00F0
:1007C000064908600846006840F003000860881584
:1007D000024910310860704700100240040C0140CB
:1007E0001E4840681E4908401C4948600846006889
:1007F0001C490840194908600846006840F48030E8
:10080000086000BF15480068C0F340400028F9D0D8
:100810001548124948601548006840F030001349F7
:1008200008600E48006840F080700C49086000BF06
:100830000A480068C0F340600028F9D007484068C3
:1008400040F0020005494860002003E00349496880
:10085000C1F381000228F9D1704700000010024066
:100860000000FFF8FFFFF6FE00041D00002002401C
:100870007CB500230093019306E0DDE90042641C8F
:1008800042F10002CDE90042DDE900321B1A8A4143
:10089000F3DB7CBD10B500F083F900F08FF910BDDB
:1008A00010B50346002003F01F0440EAC42001F005
:1008B0003F0440EA441002F01F04204310BD00BF73
:1008C000FEE770477047704710B500F001F810BDA3
:1008D0000CB50020019000903348006840F480304F
:1008E0003149086000BF3048006800F400300090D3
:1008F0000198401C0190009818B90198B0F5A06FBC
:10090000F1D12948006800F4003010B101200090B6
:1009100001E0002000900098012843D1234800689E
:1009200040F01000214908600846006820F00300EC
:1009300008600846006840F0020008601A484068F5
:10094000194948600846406848600846406840F4D5
:10095000806048600846406820F47C104860084683
:10096000406840F4E81048600846006840F0807035
:10097000086000BF0C48006800F000700028F9D043
:100980000948406820F0030007494860084640686D
:1009900040F00200486000BF0348406800F00C00CF
:1009A0000828F9D10CBD00000010024000200240D0
:1009B0007047000010B51348006840F0010011496D
:1009C000086008464068104908400E4948600846DB
:1009D00000680E4908400B4908600846006820F48A
:1009E000802008600846406820F4FE0048604FF40C
:1009F0001F008860FFF768FF4FF00060044908603F
:100A000010BD0000001002400000FFF8FFFFF6FEDE
:100A100008ED00E010B50320FFF728FE10BD10B56B
:100A20000420FFF723FE10BD00BFFEE70146712939
:100A300001D12E2070475A2901D14520FAE77929A2
:100A400001D12B20F6E77B2901D12D20F2E77C296B
:100A500001D12A20EEE74A2901D12F20EAE77029A7
:100A600001D13020E6E7692901D13120E2E772297E
:100A700001D13220DEE77A2901D13320DAE76B2970
:100A800001D13420D6E7732901D13520D2E774296A
:100A900001D13620CEE76C2901D13720CAE775296C
:100AA00001D13820C6E77D2901D13920C2E70020D5
:100AB000C0E7000030B52A244FF0D8452C80040A46
:100AC000114D2C80C4B22C808418641EC4F30724FA
:100AD0002C808418641EE4B22C802B244FF0D8455F
:100AE0002C800C0A084D2C80CCB22C80CC18641EB3
:100AF000C4F307242C80CC18641EE4B22C802C2470
:100B00004FF0D8452C8030BD0008006C08B5FFF7C9
:100B10000BFCFFF7E7FCFFF749FEFFF761FEFFF76D
:100B2000B9FDFFF751FCFFF7B5FE41F2670141F651
:100B30001F40FFF73FFD41F2670141F61F40FFF7FD
:100B400067FD0A20FFF71CFD14480021FFF790FE07
:100B500000204FF4A073F02201460090FFF714FC30
:100B600040F6E260FFF754FBF322F021AE20FFF7DE
:100B700097FE04464FF4A073F0220021009008462F
:100B8000FFF702FC08E0FFF7D9FC0446342C02D042
:100B9000382C00D000BF00BFF5E70000A0860100A0
:100BA000044908684FF6FF0108400349084301491A
:100BB000086070470CED00E00000FA051D488069F0
:100BC00040F011001B4988611B48006820F47F40F9
:100BD000194908600846006840F4084008604FF46E
:100BE00040601549103108601448006920F47041D4
:100BF00012480161006940F4005110480161104839
:100C0000006840F400600E4908600D480C30006830
:100C100040F400600A490C310860F0210948017075
:100C20000948006840F480704FF0E021C1F80401E9
:100C3000704700000010024004080140000001401D
:100C40000004014028E400E004E100E04FEA115311
:100C5000A3F58063D3F11E03A8BFD3F1200C08DBFA
:100C60004FF0004242EAC12252EA505232FA03F0F7
:100C7000704709420BD4102BC4BF0020704703F506
:100C8000787CBCF1FF3F05D04FF0FF3070474FF04C
:100C90000000704770B500F0C7F800BF499224808B
:100CA00000207047F0E710F0004248BF4042B0FA21
:100CB00080F310FA03F10AD0C3F11D0303F580633A
:100CC0004FEA415002EB035202EBD12170474FF043
:100CD00000007047DFF848C170B51CEA111E1EBF46
:100CE0001CEA13159EEA0C0F95EA0C0F00F06F80BA
:100CF00081EA030423EA4C134EEAD47E21EA4C1124
:100D000041F4801143F48013AE44A1FB024CA0FBDC
:100D10000365AEF17F7E361955EB0C05A1FB034C44
:100D20004CF10003A0FB021C16EB0C06654153F1CD
:100D30000003094218BF46F0010613F4007F0BD1EF
:100D40004FEA03314FEA0530340341EA155140EAD6
:100D500016506FF003020AE04FEAC3214FEAC520A4
:100D6000F40241EA555140EA56506FF0020202EB9C
:100D70002E4201EB025585EACE710AD05FEA440C9F
:100D800018BF24F0004450F1000041F1000120EAB6
:100D9000D47040F2FE7C624500D270BDA84214BF00
:100DA0004FF080444FF04044002E08BF0024BEF1B5
:100DB000806FA8BFA1F1C041BDE8704080F2828081
:100DC0004FF0000001F1C04101F0004170479EEA80
:100DD0000C0F0CEA131518BF95EA0C0F06D04FF054
:100DE000000081EA030E0EF0004170BD00F01CF817
:100DF0008900013E00F007B800F009B84FEA430C43
:100E00005FEA5C5C08D081EA030100F05BB84FEA5E
:100E1000410C5FEA5C5CF6D14FF00000014970477D
:100E20000000FF070000F87F0EF1020E2EF0030E07
:100E30005EF8046B364205D4012A43EB030515F531
:100E4000001F12D8012841EB010C1CF5001F0CD823
:100E50000ED14FEAD17C15F5001F0CEB4C0C0CF1B8
:100E6000020C08BF4CEBD37C04E04FF0080C01E00F
:100E70004FEAD37C0CEB4C0526FA05F606F0070684
:100E8000B6F1040C06D20EEB860CBDE870404CF0B7
:100E9000010C6047DFE80CF0090B02024FF0004143
:100EA0004FF00000A1F5002170BD19461046012841
:100EB00051EB010418BFD4F5001484BF002001F0E9
:100EC000004170BD0808A0F500114FEA31017047DC
:100ED00090EA010F48BF81F0004100F16C81421A95
:100EE0003CBF801A89184FEAD0524FF07F4C1CEA61
:100EF000410FA2EBD15318BF9CEA026F00F03B8078
:100F00004FF0004C4CEA00204CEA012121FA03FC8E
:100F100010EB0C0C1ED202F1FF325FEA1C2040EBFA
:100F2000C25038BF70471CF07F0F4FEA400C18BF0B
:100F3000BCF17F4F38BF7047C3F12003994008BF11
:100F400020F00100BCF17F4F38BF7047A0F1C040D6
:100F500000F01BB94FEA3C00000A40EBC25028BF2A
:100F60001CF0FF0F4FEA400CE6D018BFBCF17F4FDA
:100F700038BF7047EAE79CEA026F05D010EA5C0FC1
:100F800008BF00F00040704710B500F0B8F800BF8F
:100F900064FBBE3EC10DD1F19E0206DB4FEA002389
:100FA00043F0004323FA02F07047004207D54FEAAE
:100FB0004001B1F1FE4F02D24FF00000704710B572
:100FC00000F09DF849922480002070476FEA2000CD
:100FD00070470000B0FA80F310FA03F2C3F19D03EA
:100FE0000AD0D90501EB1220530638BF704700F133
:100FF000010008BF20F00100704700004FF47F0C93
:101000001CEAD0121EBF1CEAD11392EA0C0F93EA1D
:101010000C0F00F0478090EA010F48BF42F4807245
:101020004FF0004C4CEA00204CEA012102EB030295
:10103000A0FB0113A2F50002002918BF43F0010331
:101040005B0028BF4FEA330342EB22425FEA132CD6
:101050004CEBC2502EBFBCEB436FB2F57C0F704718
:101060004FEA036CBCF1004F08BF20F00100B2F55D
:101070007C0F38BF70470BD582F0FF0212F5803F1E
:10108000C8BF704700F1C040D8BF00F000407047B3
:1010900000F5000C5FEA4C0C48BF7047B0F1C0404F
:1010A00000F073B890EA010F0CEAD11348BF42F484
:1010B0008072624538BF634504D280EA010000F0C7
:1010C0000040704710B500F01AF800BF8900013EDB
:1010D00000F007B800F009B85FEA410C5FEA1C6C49
:1010E00008D080EA010000F050B85FEA400C5FEAE7
:1010F0001C6CF6D14FF00040A0F5800070470EF157
:10110000020E2EF0030E5EF8044B244204D44FEA84
:101110004102B2F17F4F11D84FEA4003B3F17F4F44
:101120000CD80ED14FEAD07CB2F17F4F0CEB4C0CB7
:101130000CF1020C08BF4CEBD17C04E04FF0080C22
:1011400001E04FEAD17C0CEB4C0324FA03F404F0E9
:101150000704B4F1040C06D20EEB840CBDE8104079
:101160004CF0010C6047DFE80CF0070802024FF07A
:101170000040A0F5800010BD0846420018BFD2F123
:10118000807288BF00F0004010BDFF2141EAD050BE
:10119000C005704780F0004090EA010F7FF59FAED8
:1011A00081F0004100F007B890EA010F48BF81F0DC
:1011B00000413FF594AE421A04D882F00042A0EB01
:1011C000020011444FEAD0524FF07F4C1CEA410F0D
:1011D000A2EBD15318BF9CEA026F4AD04FF0004CEB
:1011E0004CEA00204CEA012121FA03FCB0EB0C0C84
:1011F0000FD412F0FE0F36D05FEA4C001DD500125E
:1012000040EBC25038BF70471CF03F0F18BF70470B
:101210000BE0A2F101025FEA1C2040EBC25038BF94
:1012200070471CF07F0F18BF7047C3F1200399402F
:1012300014BF401E20F00100704780084FEA1223BF
:1012400008BF7047B0FA80FCA2EB0C02CCF1280C6E
:1012500060FA0CF093EA122F04BF00EBC250704703
:101260004FEAC3707047130A5FEADC1008BF70478B
:10127000F6E79CEA026F04D010EA5C0F08BF00207A
:10128000704710B5FFF73BFF40DFF63E81F00040AE
:1012900070470000B41200080000002008000000A1
:1012A0006C010008BC12000808000020480700007C
:0C12B000880100080000000000000000A1
:04000005080001D11D
:00000001FF
